:03000000020040BB
:0300130002007771
:10004000759850758920758DFD758BFDD28E753133
:1000500000758160907FF8F0D2AFD2AAC2BAD28A7E
:1000600080FEC0E095317003D0E022D0E0F531F59C
:10007000993099FDC29922C2AF7590FFE0120062DB
:10008000F5309000D6E53075F00A84F9E5F09394E8
:1000900080FCE975F00A84F9E5F0939400FBE975BA
:1000A000F00A84F9E5F0939400FA7D9675A0018A30
:1000B000907590FF75A0028B907590FF75A0048CD1
:1000C000907590FF75A0087590C07590FFDDDD906C
:1000D0007FF8F0D2AF32C0CFA4B0999282F880906E
:00000001FF
