:03000000020400F7
:0300130012041FB5
:10040000750001758160D2AF758920758DF4758B8B
:10041000F4758700D28E759850D2AA80FE80FAC2F9
:10042000AA7590FFC29330923630913930903CD209
:1004300093C29430923B30913E309041D294C29519
:10044000309240309143309046D295C29630910917
:10045000D29620B30302041F327540000204957542
:1004600040010204957540020204957540030204A0
:100470009575400402049575400502049575400683
:1004800002049575400702049575400802049575AD
:1004900040090204957599E13099FDC2993098FDA3
:1004A000C298E59964E270ED78407E008699EE2668
:1004B000FE083099FDC2998E993099FDC299309805
:0A04C000FDC298E59970E102041FE7
:00000001FF
